{
  "_format": "hh-sol-artifact-1",
  "contractName": "PoDNFT",
  "sourceName": "contracts/PoDNFT.sol",
  "abi": [
    {
      "inputs": [],
      "stateMutability": "nonpayable",
      "type": "constructor"
    },
    {
      "anonymous": false,
      "inputs": [
        {
          "indexed": true,
          "internalType": "address",
          "name": "owner",
          "type": "address"
        },
        {
          "indexed": true,
          "internalType": "address",
          "name": "approved",
          "type": "address"
        },
        {
          "indexed": true,
          "internalType": "uint256",
          "name": "tokenId",
          "type": "uint256"
        }
      ],
      "name": "Approval",
      "type": "event"
    },
    {
      "anonymous": false,
      "inputs": [
        {
          "indexed": true,
          "internalType": "address",
          "name": "owner",
          "type": "address"
        },
        {
          "indexed": true,
          "internalType": "address",
          "name": "operator",
          "type": "address"
        },
        {
          "indexed": false,
          "internalType": "bool",
          "name": "approved",
          "type": "bool"
        }
      ],
      "name": "ApprovalForAll",
      "type": "event"
    },
    {
      "anonymous": false,
      "inputs": [
        {
          "indexed": true,
          "internalType": "address",
          "name": "previousOwner",
          "type": "address"
        },
        {
          "indexed": true,
          "internalType": "address",
          "name": "newOwner",
          "type": "address"
        }
      ],
      "name": "OwnershipTransferred",
      "type": "event"
    },
    {
      "anonymous": false,
      "inputs": [
        {
          "indexed": false,
          "internalType": "address",
          "name": "account",
          "type": "address"
        }
      ],
      "name": "Paused",
      "type": "event"
    },
    {
      "anonymous": false,
      "inputs": [
        {
          "indexed": true,
          "internalType": "address",
          "name": "from",
          "type": "address"
        },
        {
          "indexed": true,
          "internalType": "address",
          "name": "to",
          "type": "address"
        },
        {
          "indexed": true,
          "internalType": "uint256",
          "name": "tokenId",
          "type": "uint256"
        }
      ],
      "name": "Transfer",
      "type": "event"
    },
    {
      "anonymous": false,
      "inputs": [
        {
          "indexed": false,
          "internalType": "address",
          "name": "account",
          "type": "address"
        }
      ],
      "name": "Unpaused",
      "type": "event"
    },
    {
      "inputs": [
        {
          "internalType": "address",
          "name": "to",
          "type": "address"
        },
        {
          "internalType": "uint256",
          "name": "tokenId",
          "type": "uint256"
        }
      ],
      "name": "approve",
      "outputs": [],
      "stateMutability": "nonpayable",
      "type": "function"
    },
    {
      "inputs": [
        {
          "internalType": "bytes32",
          "name": "projectIdHash",
          "type": "bytes32"
        },
        {
          "internalType": "address",
          "name": "owner",
          "type": "address"
        }
      ],
      "name": "approveProject",
      "outputs": [],
      "stateMutability": "nonpayable",
      "type": "function"
    },
    {
      "inputs": [
        {
          "internalType": "bytes32",
          "name": "",
          "type": "bytes32"
        }
      ],
      "name": "approvedProjectOwners",
      "outputs": [
        {
          "internalType": "address",
          "name": "",
          "type": "address"
        }
      ],
      "stateMutability": "view",
      "type": "function"
    },
    {
      "inputs": [
        {
          "internalType": "address",
          "name": "owner",
          "type": "address"
        }
      ],
      "name": "balanceOf",
      "outputs": [
        {
          "internalType": "uint256",
          "name": "",
          "type": "uint256"
        }
      ],
      "stateMutability": "view",
      "type": "function"
    },
    {
      "inputs": [
        {
          "internalType": "uint256",
          "name": "tokenId",
          "type": "uint256"
        }
      ],
      "name": "getApproved",
      "outputs": [
        {
          "internalType": "address",
          "name": "",
          "type": "address"
        }
      ],
      "stateMutability": "view",
      "type": "function"
    },
    {
      "inputs": [
        {
          "internalType": "address",
          "name": "owner",
          "type": "address"
        },
        {
          "internalType": "address",
          "name": "operator",
          "type": "address"
        }
      ],
      "name": "isApprovedForAll",
      "outputs": [
        {
          "internalType": "bool",
          "name": "",
          "type": "bool"
        }
      ],
      "stateMutability": "view",
      "type": "function"
    },
    {
      "inputs": [],
      "name": "name",
      "outputs": [
        {
          "internalType": "string",
          "name": "",
          "type": "string"
        }
      ],
      "stateMutability": "view",
      "type": "function"
    },
    {
      "inputs": [],
      "name": "owner",
      "outputs": [
        {
          "internalType": "address",
          "name": "",
          "type": "address"
        }
      ],
      "stateMutability": "view",
      "type": "function"
    },
    {
      "inputs": [
        {
          "internalType": "uint256",
          "name": "tokenId",
          "type": "uint256"
        }
      ],
      "name": "ownerOf",
      "outputs": [
        {
          "internalType": "address",
          "name": "",
          "type": "address"
        }
      ],
      "stateMutability": "view",
      "type": "function"
    },
    {
      "inputs": [],
      "name": "pause",
      "outputs": [],
      "stateMutability": "nonpayable",
      "type": "function"
    },
    {
      "inputs": [],
      "name": "paused",
      "outputs": [
        {
          "internalType": "bool",
          "name": "",
          "type": "bool"
        }
      ],
      "stateMutability": "view",
      "type": "function"
    },
    {
      "inputs": [
        {
          "internalType": "bytes32",
          "name": "",
          "type": "bytes32"
        }
      ],
      "name": "projectTokenIdMap",
      "outputs": [
        {
          "internalType": "uint256",
          "name": "",
          "type": "uint256"
        }
      ],
      "stateMutability": "view",
      "type": "function"
    },
    {
      "inputs": [],
      "name": "renounceOwnership",
      "outputs": [],
      "stateMutability": "nonpayable",
      "type": "function"
    },
    {
      "inputs": [
        {
          "internalType": "address",
          "name": "to",
          "type": "address"
        },
        {
          "internalType": "bytes32",
          "name": "projectIdHash",
          "type": "bytes32"
        },
        {
          "internalType": "string",
          "name": "uri",
          "type": "string"
        }
      ],
      "name": "safeMint",
      "outputs": [],
      "stateMutability": "nonpayable",
      "type": "function"
    },
    {
      "inputs": [
        {
          "internalType": "address",
          "name": "from",
          "type": "address"
        },
        {
          "internalType": "address",
          "name": "to",
          "type": "address"
        },
        {
          "internalType": "uint256",
          "name": "tokenId",
          "type": "uint256"
        }
      ],
      "name": "safeTransferFrom",
      "outputs": [],
      "stateMutability": "nonpayable",
      "type": "function"
    },
    {
      "inputs": [
        {
          "internalType": "address",
          "name": "from",
          "type": "address"
        },
        {
          "internalType": "address",
          "name": "to",
          "type": "address"
        },
        {
          "internalType": "uint256",
          "name": "tokenId",
          "type": "uint256"
        },
        {
          "internalType": "bytes",
          "name": "data",
          "type": "bytes"
        }
      ],
      "name": "safeTransferFrom",
      "outputs": [],
      "stateMutability": "nonpayable",
      "type": "function"
    },
    {
      "inputs": [
        {
          "internalType": "address",
          "name": "operator",
          "type": "address"
        },
        {
          "internalType": "bool",
          "name": "approved",
          "type": "bool"
        }
      ],
      "name": "setApprovalForAll",
      "outputs": [],
      "stateMutability": "nonpayable",
      "type": "function"
    },
    {
      "inputs": [
        {
          "internalType": "bytes4",
          "name": "interfaceId",
          "type": "bytes4"
        }
      ],
      "name": "supportsInterface",
      "outputs": [
        {
          "internalType": "bool",
          "name": "",
          "type": "bool"
        }
      ],
      "stateMutability": "view",
      "type": "function"
    },
    {
      "inputs": [],
      "name": "symbol",
      "outputs": [
        {
          "internalType": "string",
          "name": "",
          "type": "string"
        }
      ],
      "stateMutability": "view",
      "type": "function"
    },
    {
      "inputs": [
        {
          "internalType": "uint256",
          "name": "tokenId",
          "type": "uint256"
        }
      ],
      "name": "tokenURI",
      "outputs": [
        {
          "internalType": "string",
          "name": "",
          "type": "string"
        }
      ],
      "stateMutability": "view",
      "type": "function"
    },
    {
      "inputs": [
        {
          "internalType": "address",
          "name": "from",
          "type": "address"
        },
        {
          "internalType": "address",
          "name": "to",
          "type": "address"
        },
        {
          "internalType": "uint256",
          "name": "tokenId",
          "type": "uint256"
        }
      ],
      "name": "transferFrom",
      "outputs": [],
      "stateMutability": "nonpayable",
      "type": "function"
    },
    {
      "inputs": [
        {
          "internalType": "address",
          "name": "newOwner",
          "type": "address"
        }
      ],
      "name": "transferOwnership",
      "outputs": [],
      "stateMutability": "nonpayable",
      "type": "function"
    },
    {
      "inputs": [],
      "name": "unpause",
      "outputs": [],
      "stateMutability": "nonpayable",
      "type": "function"
    }
  ],
  "bytecode": "0x60806040523480156200001157600080fd5b506040518060400160405280601481526020017f50726f6f66206f6620446576656c6f706d656e7400000000000000000000000081525060405180604001604052806003815260200162141bd160ea1b8152508160009081620000759190620001a1565b506001620000848282620001a1565b50506007805460ff19169055506200009c33620000a2565b6200026d565b600780546001600160a01b03838116610100818102610100600160a81b031985161790945560405193909204169182907f8be0079c531659141344cd1fd0a4f28419497f9722a3daafe3b4186f6b6457e090600090a35050565b634e487b7160e01b600052604160045260246000fd5b600181811c908216806200012757607f821691505b6020821081036200014857634e487b7160e01b600052602260045260246000fd5b50919050565b601f8211156200019c57600081815260208120601f850160051c81016020861015620001775750805b601f850160051c820191505b81811015620001985782815560010162000183565b5050505b505050565b81516001600160401b03811115620001bd57620001bd620000fc565b620001d581620001ce845462000112565b846200014e565b602080601f8311600181146200020d5760008415620001f45750858301515b600019600386901b1c1916600185901b17855562000198565b600085815260208120601f198616915b828110156200023e578886015182559484019460019091019084016200021d565b50858210156200025d5787850151600019600388901b60f8161c191681555b5050505050600190811b01905550565b611aec806200027d6000396000f3fe608060405234801561001057600080fd5b506004361061014d5760003560e01c80635c975abb116100c357806395d89b411161007c57806395d89b41146102d1578063a22cb465146102d9578063b88d4fde146102ec578063c87b56dd146102ff578063e985e9c514610312578063f2fde38b1461034e57600080fd5b80635c975abb1461027a5780636352211e1461028557806370a0823114610298578063715018a6146102ab5780638456cb59146102b35780638da5cb5b146102bb57600080fd5b806323b872dd1161011557806323b872dd146101e2578063288fcaba146101f55780633f4ba83a1461021e57806342842e0e14610226578063482f9cb3146102395780634e3bf0a91461024c57600080fd5b806301ffc9a71461015257806306fdde031461017a578063081812fc1461018f578063095ea7b3146101ba5780631c759b69146101cf575b600080fd5b6101656101603660046114c6565b610361565b60405190151581526020015b60405180910390f35b610182610372565b6040516101719190611533565b6101a261019d366004611546565b610404565b6040516001600160a01b039091168152602001610171565b6101cd6101c836600461157b565b61042b565b005b6101cd6101dd366004611631565b610545565b6101cd6101f036600461169c565b6105e6565b6101a2610203366004611546565b600a602052600090815260409020546001600160a01b031681565b6101cd610617565b6101cd61023436600461169c565b610629565b6101cd6102473660046116d8565b610644565b61026c61025a366004611546565b60096020526000908152604090205481565b604051908152602001610171565b60075460ff16610165565b6101a2610293366004611546565b61067a565b61026c6102a6366004611704565b6106da565b6101cd610760565b6101cd610772565b60075461010090046001600160a01b03166101a2565b610182610782565b6101cd6102e736600461171f565b610791565b6101cd6102fa36600461175b565b6107a0565b61018261030d366004611546565b6107d8565b6101656103203660046117d7565b6001600160a01b03918216600090815260056020908152604080832093909416825291909152205460ff1690565b6101cd61035c366004611704565b6107e3565b600061036c8261085c565b92915050565b60606000805461038190611801565b80601f01602080910402602001604051908101604052809291908181526020018280546103ad90611801565b80156103fa5780601f106103cf576101008083540402835291602001916103fa565b820191906000526020600020905b8154815290600101906020018083116103dd57829003601f168201915b5050505050905090565b600061040f826108ac565b506000908152600460205260409020546001600160a01b031690565b60006104368261067a565b9050806001600160a01b0316836001600160a01b0316036104a85760405162461bcd60e51b815260206004820152602160248201527f4552433732313a20617070726f76616c20746f2063757272656e74206f776e656044820152603960f91b60648201526084015b60405180910390fd5b336001600160a01b03821614806104c457506104c48133610320565b6105365760405162461bcd60e51b815260206004820152603d60248201527f4552433732313a20617070726f76652063616c6c6572206973206e6f7420746f60448201527f6b656e206f776e6572206f7220617070726f76656420666f7220616c6c000000606482015260840161049f565b610540838361090b565b505050565b61054d610979565b6000828152600a60205260409020546001600160a01b03166105a05760405162461bcd60e51b815260206004820152600c60248201526b139bdd08185c1c1c9bdd995960a21b604482015260640161049f565b60006105ab60085490565b90506105bb600880546001019055565b6105c584826109d9565b6105cf81836109f3565b600092835260096020526040909220919091555050565b6105f03382610a86565b61060c5760405162461bcd60e51b815260040161049f9061183b565b610540838383610b05565b61061f610979565b610627610c76565b565b610540838383604051806020016040528060008152506107a0565b61064c610979565b6000918252600a602052604090912080546001600160a01b0319166001600160a01b03909216919091179055565b6000818152600260205260408120546001600160a01b03168061036c5760405162461bcd60e51b8152602060048201526018602482015277115490cdcc8c4e881a5b9d985b1a59081d1bdad95b88125160421b604482015260640161049f565b60006001600160a01b0382166107445760405162461bcd60e51b815260206004820152602960248201527f4552433732313a2061646472657373207a65726f206973206e6f7420612076616044820152683634b21037bbb732b960b91b606482015260840161049f565b506001600160a01b031660009081526003602052604090205490565b610768610979565b6106276000610cc8565b61077a610979565b610627610d22565b60606001805461038190611801565b61079c338383610d5f565b5050565b6107aa3383610a86565b6107c65760405162461bcd60e51b815260040161049f9061183b565b6107d284848484610e2d565b50505050565b606061036c82610e60565b6107eb610979565b6001600160a01b0381166108505760405162461bcd60e51b815260206004820152602660248201527f4f776e61626c653a206e6577206f776e657220697320746865207a65726f206160448201526564647265737360d01b606482015260840161049f565b61085981610cc8565b50565b60006001600160e01b031982166380ac58cd60e01b148061088d57506001600160e01b03198216635b5e139f60e01b145b8061036c57506301ffc9a760e01b6001600160e01b031983161461036c565b6000818152600260205260409020546001600160a01b03166108595760405162461bcd60e51b8152602060048201526018602482015277115490cdcc8c4e881a5b9d985b1a59081d1bdad95b88125160421b604482015260640161049f565b600081815260046020526040902080546001600160a01b0319166001600160a01b03841690811790915581906109408261067a565b6001600160a01b03167f8c5be1e5ebec7d5bd14f71427d1e84f3dd0314c0f7b2291e5b200ac8c7c3b92560405160405180910390a45050565b6007546001600160a01b036101009091041633146106275760405162461bcd60e51b815260206004820181905260248201527f4f776e61626c653a2063616c6c6572206973206e6f7420746865206f776e6572604482015260640161049f565b61079c828260405180602001604052806000815250610f68565b6000828152600260205260409020546001600160a01b0316610a6e5760405162461bcd60e51b815260206004820152602e60248201527f45524337323155524953746f726167653a2055524920736574206f66206e6f6e60448201526d32bc34b9ba32b73a103a37b5b2b760911b606482015260840161049f565b600082815260066020526040902061054082826118d6565b600080610a928361067a565b9050806001600160a01b0316846001600160a01b03161480610ad957506001600160a01b0380821660009081526005602090815260408083209388168352929052205460ff165b80610afd5750836001600160a01b0316610af284610404565b6001600160a01b0316145b949350505050565b826001600160a01b0316610b188261067a565b6001600160a01b031614610b3e5760405162461bcd60e51b815260040161049f90611996565b6001600160a01b038216610ba05760405162461bcd60e51b8152602060048201526024808201527f4552433732313a207472616e7366657220746f20746865207a65726f206164646044820152637265737360e01b606482015260840161049f565b610bad8383836001610f9b565b826001600160a01b0316610bc08261067a565b6001600160a01b031614610be65760405162461bcd60e51b815260040161049f90611996565b600081815260046020908152604080832080546001600160a01b03199081169091556001600160a01b0387811680865260038552838620805460001901905590871680865283862080546001019055868652600290945282852080549092168417909155905184937fddf252ad1be2c89b69c2b068fc378daa952ba7f163c4a11628f55a4df523b3ef91a4505050565b610c7e610fa8565b6007805460ff191690557f5db9ee0a495bf2e6ff9c91a7834c1ba4fdd244a5e8aa4e537bd38aeae4b073aa335b6040516001600160a01b03909116815260200160405180910390a1565b600780546001600160a01b03838116610100818102610100600160a81b031985161790945560405193909204169182907f8be0079c531659141344cd1fd0a4f28419497f9722a3daafe3b4186f6b6457e090600090a35050565b610d2a610ff1565b6007805460ff191660011790557f62e78cea01bee320cd4e420270b5ea74000d11b0c9f74754ebdbfc544b05a258610cab3390565b816001600160a01b0316836001600160a01b031603610dc05760405162461bcd60e51b815260206004820152601960248201527f4552433732313a20617070726f766520746f2063616c6c657200000000000000604482015260640161049f565b6001600160a01b03838116600081815260056020908152604080832094871680845294825291829020805460ff191686151590811790915591519182527f17307eab39ab6107e8899845ad3d59bd9653f200f220920489ca2b5937696c31910160405180910390a3505050565b610e38848484610b05565b610e4484848484611037565b6107d25760405162461bcd60e51b815260040161049f906119db565b6060610e6b826108ac565b60008281526006602052604081208054610e8490611801565b80601f0160208091040260200160405190810160405280929190818152602001828054610eb090611801565b8015610efd5780601f10610ed257610100808354040283529160200191610efd565b820191906000526020600020905b815481529060010190602001808311610ee057829003601f168201915b505050505090506000610f1b60408051602081019091526000815290565b90508051600003610f2d575092915050565b815115610f5f578082604051602001610f47929190611a2d565b60405160208183030381529060405292505050919050565b610afd84611138565b610f7283836111ac565b610f7f6000848484611037565b6105405760405162461bcd60e51b815260040161049f906119db565b610fa3610ff1565b6107d2565b60075460ff166106275760405162461bcd60e51b815260206004820152601460248201527314185d5cd8589b194e881b9bdd081c185d5cd95960621b604482015260640161049f565b60075460ff16156106275760405162461bcd60e51b815260206004820152601060248201526f14185d5cd8589b194e881c185d5cd95960821b604482015260640161049f565b60006001600160a01b0384163b1561112d57604051630a85bd0160e11b81526001600160a01b0385169063150b7a029061107b903390899088908890600401611a5c565b6020604051808303816000875af19250505080156110b6575060408051601f3d908101601f191682019092526110b391810190611a99565b60015b611113573d8080156110e4576040519150601f19603f3d011682016040523d82523d6000602084013e6110e9565b606091505b50805160000361110b5760405162461bcd60e51b815260040161049f906119db565b805181602001fd5b6001600160e01b031916630a85bd0160e11b149050610afd565b506001949350505050565b6060611143826108ac565b600061115a60408051602081019091526000815290565b9050600081511161117a57604051806020016040528060008152506111a5565b8061118484611345565b604051602001611195929190611a2d565b6040516020818303038152906040525b9392505050565b6001600160a01b0382166112025760405162461bcd60e51b815260206004820181905260248201527f4552433732313a206d696e7420746f20746865207a65726f2061646472657373604482015260640161049f565b6000818152600260205260409020546001600160a01b0316156112675760405162461bcd60e51b815260206004820152601c60248201527f4552433732313a20746f6b656e20616c7265616479206d696e74656400000000604482015260640161049f565b611275600083836001610f9b565b6000818152600260205260409020546001600160a01b0316156112da5760405162461bcd60e51b815260206004820152601c60248201527f4552433732313a20746f6b656e20616c7265616479206d696e74656400000000604482015260640161049f565b6001600160a01b038216600081815260036020908152604080832080546001019055848352600290915280822080546001600160a01b0319168417905551839291907fddf252ad1be2c89b69c2b068fc378daa952ba7f163c4a11628f55a4df523b3ef908290a45050565b60606000611352836113d8565b600101905060008167ffffffffffffffff811115611372576113726115a5565b6040519080825280601f01601f19166020018201604052801561139c576020820181803683370190505b5090508181016020015b600019016f181899199a1a9b1b9c1cb0b131b232b360811b600a86061a8153600a85049450846113a657509392505050565b60008072184f03e93ff9f4daa797ed6e38ed64bf6a1f0160401b83106114175772184f03e93ff9f4daa797ed6e38ed64bf6a1f0160401b830492506040015b6d04ee2d6d415b85acef81000000008310611443576d04ee2d6d415b85acef8100000000830492506020015b662386f26fc10000831061146157662386f26fc10000830492506010015b6305f5e1008310611479576305f5e100830492506008015b612710831061148d57612710830492506004015b6064831061149f576064830492506002015b600a831061036c5760010192915050565b6001600160e01b03198116811461085957600080fd5b6000602082840312156114d857600080fd5b81356111a5816114b0565b60005b838110156114fe5781810151838201526020016114e6565b50506000910152565b6000815180845261151f8160208601602086016114e3565b601f01601f19169290920160200192915050565b6020815260006111a56020830184611507565b60006020828403121561155857600080fd5b5035919050565b80356001600160a01b038116811461157657600080fd5b919050565b6000806040838503121561158e57600080fd5b6115978361155f565b946020939093013593505050565b634e487b7160e01b600052604160045260246000fd5b600067ffffffffffffffff808411156115d6576115d66115a5565b604051601f8501601f19908116603f011681019082821181831017156115fe576115fe6115a5565b8160405280935085815286868601111561161757600080fd5b858560208301376000602087830101525050509392505050565b60008060006060848603121561164657600080fd5b61164f8461155f565b925060208401359150604084013567ffffffffffffffff81111561167257600080fd5b8401601f8101861361168357600080fd5b611692868235602084016115bb565b9150509250925092565b6000806000606084860312156116b157600080fd5b6116ba8461155f565b92506116c86020850161155f565b9150604084013590509250925092565b600080604083850312156116eb57600080fd5b823591506116fb6020840161155f565b90509250929050565b60006020828403121561171657600080fd5b6111a58261155f565b6000806040838503121561173257600080fd5b61173b8361155f565b91506020830135801515811461175057600080fd5b809150509250929050565b6000806000806080858703121561177157600080fd5b61177a8561155f565b93506117886020860161155f565b925060408501359150606085013567ffffffffffffffff8111156117ab57600080fd5b8501601f810187136117bc57600080fd5b6117cb878235602084016115bb565b91505092959194509250565b600080604083850312156117ea57600080fd5b6117f38361155f565b91506116fb6020840161155f565b600181811c9082168061181557607f821691505b60208210810361183557634e487b7160e01b600052602260045260246000fd5b50919050565b6020808252602d908201527f4552433732313a2063616c6c6572206973206e6f7420746f6b656e206f776e6560408201526c1c881bdc88185c1c1c9bdd9959609a1b606082015260800190565b601f82111561054057600081815260208120601f850160051c810160208610156118af5750805b601f850160051c820191505b818110156118ce578281556001016118bb565b505050505050565b815167ffffffffffffffff8111156118f0576118f06115a5565b611904816118fe8454611801565b84611888565b602080601f83116001811461193957600084156119215750858301515b600019600386901b1c1916600185901b1785556118ce565b600085815260208120601f198616915b8281101561196857888601518255948401946001909101908401611949565b50858210156119865787850151600019600388901b60f8161c191681555b5050505050600190811b01905550565b60208082526025908201527f4552433732313a207472616e736665722066726f6d20696e636f72726563742060408201526437bbb732b960d91b606082015260800190565b60208082526032908201527f4552433732313a207472616e7366657220746f206e6f6e20455243373231526560408201527131b2b4bb32b91034b6b83632b6b2b73a32b960711b606082015260800190565b60008351611a3f8184602088016114e3565b835190830190611a538183602088016114e3565b01949350505050565b6001600160a01b0385811682528416602082015260408101839052608060608201819052600090611a8f90830184611507565b9695505050505050565b600060208284031215611aab57600080fd5b81516111a5816114b056fea26469706673582212203a777c85e99356b61ade826ab4672e954b1b57d9eba25ebdb381b3f8f83c573b64736f6c63430008110033",
  "linkReferences": {},
  "deployedLinkReferences": {}
}